{
  "contractName": "CommunityLoans",
  "abi": [
    {
      "inputs": [],
      "payable": false,
      "stateMutability": "nonpayable",
      "type": "constructor"
    },
    {
      "constant": true,
      "inputs": [],
      "name": "claim",
      "outputs": [
        {
          "internalType": "string",
          "name": "description",
          "type": "string"
        },
        {
          "internalType": "uint256",
          "name": "value",
          "type": "uint256"
        },
        {
          "internalType": "address payable",
          "name": "recipient",
          "type": "address"
        },
        {
          "internalType": "bool",
          "name": "approved",
          "type": "bool"
        },
        {
          "internalType": "bool",
          "name": "active",
          "type": "bool"
        },
        {
          "internalType": "uint256",
          "name": "approvalCount",
          "type": "uint256"
        }
      ],
      "payable": false,
      "stateMutability": "view",
      "type": "function"
    },
    {
      "constant": true,
      "inputs": [
        {
          "internalType": "address",
          "name": "",
          "type": "address"
        }
      ],
      "name": "contributors",
      "outputs": [
        {
          "internalType": "bool",
          "name": "",
          "type": "bool"
        }
      ],
      "payable": false,
      "stateMutability": "view",
      "type": "function"
    },
    {
      "constant": true,
      "inputs": [],
      "name": "owner",
      "outputs": [
        {
          "internalType": "address",
          "name": "",
          "type": "address"
        }
      ],
      "payable": false,
      "stateMutability": "view",
      "type": "function"
    },
    {
      "constant": false,
      "inputs": [],
      "name": "becomeMember",
      "outputs": [
        {
          "internalType": "uint256",
          "name": "value",
          "type": "uint256"
        }
      ],
      "payable": true,
      "stateMutability": "payable",
      "type": "function"
    },
    {
      "constant": false,
      "inputs": [],
      "name": "rePay",
      "outputs": [],
      "payable": true,
      "stateMutability": "payable",
      "type": "function"
    },
    {
      "constant": true,
      "inputs": [],
      "name": "escrowBalance",
      "outputs": [
        {
          "internalType": "uint256",
          "name": "",
          "type": "uint256"
        }
      ],
      "payable": false,
      "stateMutability": "view",
      "type": "function"
    },
    {
      "constant": false,
      "inputs": [
        {
          "internalType": "string",
          "name": "description",
          "type": "string"
        },
        {
          "internalType": "uint256",
          "name": "amount",
          "type": "uint256"
        }
      ],
      "name": "createRequest",
      "outputs": [],
      "payable": false,
      "stateMutability": "nonpayable",
      "type": "function"
    },
    {
      "constant": false,
      "inputs": [],
      "name": "approveClaim",
      "outputs": [],
      "payable": false,
      "stateMutability": "nonpayable",
      "type": "function"
    },
    {
      "constant": false,
      "inputs": [],
      "name": "rejectClaim",
      "outputs": [],
      "payable": false,
      "stateMutability": "nonpayable",
      "type": "function"
    }
  ],
  "bytecode": "0x60806040526000600260006101000a81548160ff021916908360ff16021790555034801561002c57600080fd5b50336000806101000a81548173ffffffffffffffffffffffffffffffffffffffff021916908373ffffffffffffffffffffffffffffffffffffffff160217905550610fc48061007c6000396000f3fe6080604052600436106100865760003560e01c80639d083222116100595780639d08322214610249578063a0470cb414610267578063aa6e90c01461027e578063e11e1b0c14610350578063e42548dd1461037b57610086565b80631f6d49421461008b5780634e71d92d146100f457806371ad9ca3146101db5780638da5cb5b146101f2575b600080fd5b34801561009757600080fd5b506100da600480360360208110156100ae57600080fd5b81019080803573ffffffffffffffffffffffffffffffffffffffff169060200190929190505050610385565b604051808215151515815260200191505060405180910390f35b34801561010057600080fd5b506101096103a5565b60405180806020018781526020018673ffffffffffffffffffffffffffffffffffffffff1673ffffffffffffffffffffffffffffffffffffffff1681526020018515151515815260200184151515158152602001838152602001828103825288818151815260200191508051906020019080838360005b8381101561019b578082015181840152602081019050610180565b50505050905090810190601f1680156101c85780820380516001836020036101000a031916815260200191505b5097505050505050505060405180910390f35b3480156101e757600080fd5b506101f06104a1565b005b3480156101fe57600080fd5b5061020761068c565b604051808273ffffffffffffffffffffffffffffffffffffffff1673ffffffffffffffffffffffffffffffffffffffff16815260200191505060405180910390f35b6102516106b1565b6040518082815260200191505060405180910390f35b34801561027357600080fd5b5061027c610846565b005b34801561028a57600080fd5b5061034e600480360360408110156102a157600080fd5b81019080803590602001906401000000008111156102be57600080fd5b8201836020820111156102d057600080fd5b803590602001918460018302840111640100000000831117156102f257600080fd5b91908080601f016020809104026020016040519081016040528093929190818152602001838380828437600081840152601f19601f82011690508083019250505050505050919291929080359060200190929190505050610a5e565b005b34801561035c57600080fd5b50610365610d6d565b6040518082815260200191505060405180910390f35b610383610d75565b005b60016020528060005260406000206000915054906101000a900460ff1681565b6003806000018054600181600116156101000203166002900480601f01602080910402602001604051908101604052809291908181526020018280546001816001161561010002031660029004801561043f5780601f106104145761010080835404028352916020019161043f565b820191906000526020600020905b81548152906001019060200180831161042257829003601f168201915b5050505050908060010154908060020160009054906101000a900473ffffffffffffffffffffffffffffffffffffffff16908060020160149054906101000a900460ff16908060020160159054906101000a900460ff16908060030154905086565b600160003373ffffffffffffffffffffffffffffffffffffffff1673ffffffffffffffffffffffffffffffffffffffff16815260200190815260200160002060009054906101000a900460ff16610560576040517f08c379a000000000000000000000000000000000000000000000000000000000815260040180806020018281038252601e8152602001807f4f6e6c79206d656d626572732063616e2072656a65637420636c61696d73000081525060200191505060405180910390fd5b3373ffffffffffffffffffffffffffffffffffffffff16600360020160009054906101000a900473ffffffffffffffffffffffffffffffffffffffff1673ffffffffffffffffffffffffffffffffffffffff161415610627576040517f08c379a00000000000000000000000000000000000000000000000000000000081526004018080602001828103825260208152602001807f596f752063616e6e6f742072656a65637420796f7572206f776e20636c61696d81525060200191505060405180910390fd5b6000600360020160006101000a81548173ffffffffffffffffffffffffffffffffffffffff021916908373ffffffffffffffffffffffffffffffffffffffff1602179055506000600360020160156101000a81548160ff021916908315150217905550565b6000809054906101000a900473ffffffffffffffffffffffffffffffffffffffff1681565b6000670de0b6b3a76400003414610730576040517f08c379a00000000000000000000000000000000000000000000000000000000081526004018080602001828103825260168152602001807f706c656173652073656e64203120657468657265756d0000000000000000000081525060200191505060405180910390fd5b60028060009054906101000a900460ff1660ff16106107b7576040517f08c379a000000000000000000000000000000000000000000000000000000000815260040180806020018281038252601b8152602001807f536f7272792c206d656d6265722073706163652069732066756c6c000000000081525060200191505060405180910390fd5b60018060003373ffffffffffffffffffffffffffffffffffffffff1673ffffffffffffffffffffffffffffffffffffffff16815260200190815260200160002060006101000a81548160ff0219169083151502179055506002600081819054906101000a900460ff168092919060010191906101000a81548160ff021916908360ff1602179055505034905090565b600160003373ffffffffffffffffffffffffffffffffffffffff1673ffffffffffffffffffffffffffffffffffffffff16815260200190815260200160002060009054906101000a900460ff16610905576040517f08c379a000000000000000000000000000000000000000000000000000000000815260040180806020018281038252601f8152602001807f4f6e6c79206d656d626572732063616e20617070726f766520636c61696d730081525060200191505060405180910390fd5b3373ffffffffffffffffffffffffffffffffffffffff16600360020160009054906101000a900473ffffffffffffffffffffffffffffffffffffffff1673ffffffffffffffffffffffffffffffffffffffff1614156109af576040517f08c379a0000000000000000000000000000000000000000000000000000000008152600401808060200182810382526021815260200180610f2c6021913960400191505060405180910390fd5b6001600360020160146101000a81548160ff0219169083151502179055506000600360020160156101000a81548160ff021916908315150217905550600360020160009054906101000a900473ffffffffffffffffffffffffffffffffffffffff1673ffffffffffffffffffffffffffffffffffffffff166108fc6003600101549081150290604051600060405180830381858888f19350505050158015610a5b573d6000803e3d6000fd5b50565b600160003373ffffffffffffffffffffffffffffffffffffffff1673ffffffffffffffffffffffffffffffffffffffff16815260200190815260200160002060009054906101000a900460ff16610b00576040517f08c379a0000000000000000000000000000000000000000000000000000000008152600401808060200182810382526021815260200180610f6f6021913960400191505060405180910390fd5b6000811415610b77576040517f08c379a00000000000000000000000000000000000000000000000000000000081526004018080602001828103825260118152602001807f616d6f756e742063616e2774206265203000000000000000000000000000000081525060200191505060405180910390fd5b600360020160159054906101000a900460ff1615610be0576040517f08c379a0000000000000000000000000000000000000000000000000000000008152600401808060200182810382526022815260200180610f4d6022913960400191505060405180910390fd5b80471015610c56576040517f08c379a000000000000000000000000000000000000000000000000000000000815260040180806020018281038252601b8152602001807f6e6f7420656e6f7567682062616c616e636520746f20636c61696d000000000081525060200191505060405180910390fd5b610c5e610e36565b6040518060c001604052808481526020018381526020013373ffffffffffffffffffffffffffffffffffffffff168152602001600015158152602001600115158152602001600081525090508060036000820151816000019080519060200190610cc9929190610e86565b506020820151816001015560408201518160020160006101000a81548173ffffffffffffffffffffffffffffffffffffffff021916908373ffffffffffffffffffffffffffffffffffffffff16021790555060608201518160020160146101000a81548160ff02191690831515021790555060808201518160020160156101000a81548160ff02191690831515021790555060a08201518160030155905050505050565b600047905090565b600160003373ffffffffffffffffffffffffffffffffffffffff1673ffffffffffffffffffffffffffffffffffffffff16815260200190815260200160002060009054906101000a900460ff16610e34576040517f08c379a000000000000000000000000000000000000000000000000000000000815260040180806020018281038252601c8152602001807f6f6e6c79206d65626572732063616e207265636f6e747269627574650000000081525060200191505060405180910390fd5b565b6040518060c001604052806060815260200160008152602001600073ffffffffffffffffffffffffffffffffffffffff168152602001600015158152602001600015158152602001600081525090565b828054600181600116156101000203166002900490600052602060002090601f016020900481019282601f10610ec757805160ff1916838001178555610ef5565b82800160010185558215610ef5579182015b82811115610ef4578251825591602001919060010190610ed9565b5b509050610f029190610f06565b5090565b610f2891905b80821115610f24576000816000905550600101610f0c565b5090565b9056fe596f752063616e6e6f7420617070726f766520796f7572206f776e20636c61696d74686572652063616e206265206f6e6c79206f6e652061637469766520636c61696d4f6e6c7920636f6e74696275746f72732063616e206d616b65206120636c61696da265627a7a72315820bc2e60341d507907fe2b073a26ac76ff96eeeb686062b4222719c42cca825d3264736f6c63430005100032",
  "source": "pragma solidity >=0.4.21 <0.7.0;\n\ncontract CommunityLoans {\n  address public owner;\n    mapping(address => bool) public contributors;\n    uint8 contributorsCount = 0;\n    struct Claim {\n        string description;\n        uint value;\n        address payable recipient;\n        bool approved;\n        bool active;\n        uint approvalCount;\n    }\n    // Claim[] public claims;\n    Claim public claim;\n  constructor() public {\n    owner = msg.sender;\n  }\n\n   function becomeMember() public payable returns (uint256  value) {\n            require(msg.value == 1 ether, \"please send 1 ethereum\");\n            require(contributorsCount < 2, \"Sorry, member space is full\");\n            contributors[msg.sender] = true;\n            contributorsCount++;\n            return msg.value;\n    }\n    function rePay() public payable {\n        require(contributors[msg.sender], \"only mebers can recontribute\");\n    }\n        function escrowBalance() public view returns (uint) {\n        return address(this).balance;\n    }\n    \n       function createRequest(string memory description, uint256 amount) public {\n           require(contributors[msg.sender], \"Only contibutors can make a claim\");\n           require(amount !=  0 wei, \"amount can't be 0\");\n           require(!claim.active, \"there can be only one active claim\");\n           require(address(this).balance >= amount, \"not enough balance to claim\");\n           Claim memory newClaim = Claim({\n           description: description,\n           value: amount,\n           recipient: msg.sender,\n           active: true,\n           approved: false,\n           approvalCount: 0\n        });\n\n        claim =  newClaim;\n    }\n    \n     function approveClaim() public {\n        // function approveClaim(uint index) public {\n        // Claim storage claim = claims[index];\n        require(contributors[msg.sender],\"Only members can approve claims\");\n        require(claim.recipient != msg.sender,\"You cannot approve your own claim\");\n        claim.approved = true;\n        claim.active = false;\n        claim.recipient.transfer(claim.value);\n    }\n         function rejectClaim() public {\n        require(contributors[msg.sender],\"Only members can reject claims\");\n        require(claim.recipient != msg.sender,\"You cannot reject your own claim\");\n        claim.recipient = 0x0000000000000000000000000000000000000000;\n        claim.active = false;\n    }\n\n}",
  "sourcePath": "/Users/samitannir/Downloads/piggybank/contracts/CommunityLoans.sol",
  "compiler": {
    "name": "solc",
    "version": "0.5.16+commit.9c3226ce.Emscripten.clang"
  },
  "schemaVersion": "3.1.0",
  "updatedAt": "2020-04-24T02:28:22.510Z",
  "networkType": "ethereum",
  "devdoc": {
    "methods": {}
  },
  "userdoc": {
    "methods": {}
  }
}